{
  "contractName": "BojackToken",
  "abi": [
    {
      "inputs": [
        {
          "internalType": "uint256",
          "name": "initialSupply",
          "type": "uint256"
        }
      ],
      "stateMutability": "nonpayable",
      "type": "constructor"
    },
    {
      "anonymous": false,
      "inputs": [
        {
          "indexed": true,
          "internalType": "address",
          "name": "owner",
          "type": "address"
        },
        {
          "indexed": true,
          "internalType": "address",
          "name": "spender",
          "type": "address"
        },
        {
          "indexed": false,
          "internalType": "uint256",
          "name": "value",
          "type": "uint256"
        }
      ],
      "name": "Approval",
      "type": "event"
    },
    {
      "anonymous": false,
      "inputs": [
        {
          "indexed": true,
          "internalType": "address",
          "name": "from",
          "type": "address"
        },
        {
          "indexed": true,
          "internalType": "address",
          "name": "to",
          "type": "address"
        },
        {
          "indexed": false,
          "internalType": "uint256",
          "name": "value",
          "type": "uint256"
        }
      ],
      "name": "Transfer",
      "type": "event"
    },
    {
      "inputs": [
        {
          "internalType": "address",
          "name": "",
          "type": "address"
        },
        {
          "internalType": "address",
          "name": "",
          "type": "address"
        }
      ],
      "name": "allowance",
      "outputs": [
        {
          "internalType": "uint256",
          "name": "",
          "type": "uint256"
        }
      ],
      "stateMutability": "view",
      "type": "function"
    },
    {
      "inputs": [
        {
          "internalType": "address",
          "name": "",
          "type": "address"
        }
      ],
      "name": "balanceOf",
      "outputs": [
        {
          "internalType": "uint256",
          "name": "",
          "type": "uint256"
        }
      ],
      "stateMutability": "view",
      "type": "function"
    },
    {
      "inputs": [],
      "name": "decimals",
      "outputs": [
        {
          "internalType": "uint8",
          "name": "",
          "type": "uint8"
        }
      ],
      "stateMutability": "view",
      "type": "function"
    },
    {
      "inputs": [],
      "name": "name",
      "outputs": [
        {
          "internalType": "string",
          "name": "",
          "type": "string"
        }
      ],
      "stateMutability": "view",
      "type": "function"
    },
    {
      "inputs": [],
      "name": "owner",
      "outputs": [
        {
          "internalType": "address",
          "name": "",
          "type": "address"
        }
      ],
      "stateMutability": "view",
      "type": "function"
    },
    {
      "inputs": [],
      "name": "symbol",
      "outputs": [
        {
          "internalType": "string",
          "name": "",
          "type": "string"
        }
      ],
      "stateMutability": "view",
      "type": "function"
    },
    {
      "inputs": [],
      "name": "totalSupply",
      "outputs": [
        {
          "internalType": "uint256",
          "name": "",
          "type": "uint256"
        }
      ],
      "stateMutability": "view",
      "type": "function"
    },
    {
      "inputs": [
        {
          "internalType": "address",
          "name": "to",
          "type": "address"
        },
        {
          "internalType": "uint256",
          "name": "value",
          "type": "uint256"
        }
      ],
      "name": "transfer",
      "outputs": [
        {
          "internalType": "bool",
          "name": "success",
          "type": "bool"
        }
      ],
      "stateMutability": "nonpayable",
      "type": "function"
    },
    {
      "inputs": [
        {
          "internalType": "address",
          "name": "spender",
          "type": "address"
        },
        {
          "internalType": "uint256",
          "name": "value",
          "type": "uint256"
        }
      ],
      "name": "approve",
      "outputs": [
        {
          "internalType": "bool",
          "name": "success",
          "type": "bool"
        }
      ],
      "stateMutability": "nonpayable",
      "type": "function"
    },
    {
      "inputs": [
        {
          "internalType": "address",
          "name": "from",
          "type": "address"
        },
        {
          "internalType": "address",
          "name": "to",
          "type": "address"
        },
        {
          "internalType": "uint256",
          "name": "value",
          "type": "uint256"
        }
      ],
      "name": "transferFrom",
      "outputs": [
        {
          "internalType": "bool",
          "name": "success",
          "type": "bool"
        }
      ],
      "stateMutability": "nonpayable",
      "type": "function"
    },
    {
      "inputs": [
        {
          "internalType": "address",
          "name": "newOwner",
          "type": "address"
        }
      ],
      "name": "changeOwner",
      "outputs": [],
      "stateMutability": "nonpayable",
      "type": "function"
    },
    {
      "inputs": [],
      "name": "destroy",
      "outputs": [],
      "stateMutability": "nonpayable",
      "type": "function"
    }
  ],
  "bytecode": "0x608060405234801562000010575f80fd5b50604051620012dd380380620012dd833981810160405281019062000036919062000142565b3360035f6101000a81548173ffffffffffffffffffffffffffffffffffffffff021916908373ffffffffffffffffffffffffffffffffffffffff160217905550601260ff16600a620000899190620002ef565b816200009691906200033f565b5f819055505f5460015f60035f9054906101000a900473ffffffffffffffffffffffffffffffffffffffff1673ffffffffffffffffffffffffffffffffffffffff1673ffffffffffffffffffffffffffffffffffffffff1681526020019081526020015f20819055505062000389565b5f80fd5b5f819050919050565b6200011e816200010a565b811462000129575f80fd5b50565b5f815190506200013c8162000113565b92915050565b5f602082840312156200015a576200015962000106565b5b5f62000169848285016200012c565b91505092915050565b7f4e487b71000000000000000000000000000000000000000000000000000000005f52601160045260245ffd5b5f8160011c9050919050565b5f808291508390505b6001851115620001fc57808604811115620001d457620001d362000172565b5b6001851615620001e45780820291505b8081029050620001f4856200019f565b9450620001b4565b94509492505050565b5f82620002165760019050620002e8565b8162000225575f9050620002e8565b81600181146200023e576002811462000249576200027f565b6001915050620002e8565b60ff8411156200025e576200025d62000172565b5b8360020a91508482111562000278576200027762000172565b5b50620002e8565b5060208310610133831016604e8410600b8410161715620002b95782820a905083811115620002b357620002b262000172565b5b620002e8565b620002c88484846001620001ab565b92509050818404811115620002e257620002e162000172565b5b81810290505b9392505050565b5f620002fb826200010a565b915062000308836200010a565b9250620003377fffffffffffffffffffffffffffffffffffffffffffffffffffffffffffffffff848462000205565b905092915050565b5f6200034b826200010a565b915062000358836200010a565b925082820262000368816200010a565b9150828204841483151762000382576200038162000172565b5b5092915050565b610f4680620003975f395ff3fe608060405234801561000f575f80fd5b50600436106100b2575f3560e01c806383197ef01161006f57806383197ef0146101a05780638da5cb5b146101aa57806395d89b41146101c8578063a6f9dae1146101e6578063a9059cbb14610202578063dd62ed3e14610232576100b2565b806306fdde03146100b6578063095ea7b3146100d457806318160ddd1461010457806323b872dd14610122578063313ce5671461015257806370a0823114610170575b5f80fd5b6100be610262565b6040516100cb9190610ac0565b60405180910390f35b6100ee60048036038101906100e99190610b71565b61029b565b6040516100fb9190610bc9565b60405180910390f35b61010c610388565b6040516101199190610bf1565b60405180910390f35b61013c60048036038101906101379190610c0a565b61038d565b6040516101499190610bc9565b60405180910390f35b61015a61066d565b6040516101679190610c75565b60405180910390f35b61018a60048036038101906101859190610c8e565b610672565b6040516101979190610bf1565b60405180910390f35b6101a8610687565b005b6101b2610750565b6040516101bf9190610cc8565b60405180910390f35b6101d0610775565b6040516101dd9190610ac0565b60405180910390f35b61020060048036038101906101fb9190610c8e565b6107ae565b005b61021c60048036038101906102179190610b71565b610880565b6040516102299190610bc9565b60405180910390f35b61024c60048036038101906102479190610ce1565b610a16565b6040516102599190610bf1565b60405180910390f35b6040518060400160405280600681526020017f426f6a61636b000000000000000000000000000000000000000000000000000081525081565b5f8160025f3373ffffffffffffffffffffffffffffffffffffffff1673ffffffffffffffffffffffffffffffffffffffff1681526020019081526020015f205f8573ffffffffffffffffffffffffffffffffffffffff1673ffffffffffffffffffffffffffffffffffffffff1681526020019081526020015f20819055508273ffffffffffffffffffffffffffffffffffffffff163373ffffffffffffffffffffffffffffffffffffffff167f8c5be1e5ebec7d5bd14f71427d1e84f3dd0314c0f7b2291e5b200ac8c7c3b925846040516103769190610bf1565b60405180910390a36001905092915050565b5f5481565b5f8160015f8673ffffffffffffffffffffffffffffffffffffffff1673ffffffffffffffffffffffffffffffffffffffff1681526020019081526020015f2054101561040e576040517f08c379a000000000000000000000000000000000000000000000000000000000815260040161040590610d69565b60405180910390fd5b8160025f8673ffffffffffffffffffffffffffffffffffffffff1673ffffffffffffffffffffffffffffffffffffffff1681526020019081526020015f205f3373ffffffffffffffffffffffffffffffffffffffff1673ffffffffffffffffffffffffffffffffffffffff1681526020019081526020015f205410156104c9576040517f08c379a00000000000000000000000000000000000000000000000000000000081526004016104c090610dd1565b60405180910390fd5b8160015f8673ffffffffffffffffffffffffffffffffffffffff1673ffffffffffffffffffffffffffffffffffffffff1681526020019081526020015f205f8282546105159190610e1c565b925050819055508160015f8573ffffffffffffffffffffffffffffffffffffffff1673ffffffffffffffffffffffffffffffffffffffff1681526020019081526020015f205f8282546105689190610e4f565b925050819055508160025f8673ffffffffffffffffffffffffffffffffffffffff1673ffffffffffffffffffffffffffffffffffffffff1681526020019081526020015f205f3373ffffffffffffffffffffffffffffffffffffffff1673ffffffffffffffffffffffffffffffffffffffff1681526020019081526020015f205f8282546105f69190610e1c565b925050819055508273ffffffffffffffffffffffffffffffffffffffff168473ffffffffffffffffffffffffffffffffffffffff167fddf252ad1be2c89b69c2b068fc378daa952ba7f163c4a11628f55a4df523b3ef8460405161065a9190610bf1565b60405180910390a3600190509392505050565b601281565b6001602052805f5260405f205f915090505481565b60035f9054906101000a900473ffffffffffffffffffffffffffffffffffffffff1673ffffffffffffffffffffffffffffffffffffffff163373ffffffffffffffffffffffffffffffffffffffff1614610716576040517f08c379a000000000000000000000000000000000000000000000000000000000815260040161070d90610ef2565b60405180910390fd5b60035f9054906101000a900473ffffffffffffffffffffffffffffffffffffffff1673ffffffffffffffffffffffffffffffffffffffff16ff5b60035f9054906101000a900473ffffffffffffffffffffffffffffffffffffffff1681565b6040518060400160405280600381526020017f424a4b000000000000000000000000000000000000000000000000000000000081525081565b60035f9054906101000a900473ffffffffffffffffffffffffffffffffffffffff1673ffffffffffffffffffffffffffffffffffffffff163373ffffffffffffffffffffffffffffffffffffffff161461083d576040517f08c379a000000000000000000000000000000000000000000000000000000000815260040161083490610ef2565b60405180910390fd5b8060035f6101000a81548173ffffffffffffffffffffffffffffffffffffffff021916908373ffffffffffffffffffffffffffffffffffffffff16021790555050565b5f8160015f3373ffffffffffffffffffffffffffffffffffffffff1673ffffffffffffffffffffffffffffffffffffffff1681526020019081526020015f20541015610901576040517f08c379a00000000000000000000000000000000000000000000000000000000081526004016108f890610d69565b60405180910390fd5b8160015f3373ffffffffffffffffffffffffffffffffffffffff1673ffffffffffffffffffffffffffffffffffffffff1681526020019081526020015f205f82825461094d9190610e1c565b925050819055508160015f8573ffffffffffffffffffffffffffffffffffffffff1673ffffffffffffffffffffffffffffffffffffffff1681526020019081526020015f205f8282546109a09190610e4f565b925050819055508273ffffffffffffffffffffffffffffffffffffffff163373ffffffffffffffffffffffffffffffffffffffff167fddf252ad1be2c89b69c2b068fc378daa952ba7f163c4a11628f55a4df523b3ef84604051610a049190610bf1565b60405180910390a36001905092915050565b6002602052815f5260405f20602052805f5260405f205f91509150505481565b5f81519050919050565b5f82825260208201905092915050565b5f5b83811015610a6d578082015181840152602081019050610a52565b5f8484015250505050565b5f601f19601f8301169050919050565b5f610a9282610a36565b610a9c8185610a40565b9350610aac818560208601610a50565b610ab581610a78565b840191505092915050565b5f6020820190508181035f830152610ad88184610a88565b905092915050565b5f80fd5b5f73ffffffffffffffffffffffffffffffffffffffff82169050919050565b5f610b0d82610ae4565b9050919050565b610b1d81610b03565b8114610b27575f80fd5b50565b5f81359050610b3881610b14565b92915050565b5f819050919050565b610b5081610b3e565b8114610b5a575f80fd5b50565b5f81359050610b6b81610b47565b92915050565b5f8060408385031215610b8757610b86610ae0565b5b5f610b9485828601610b2a565b9250506020610ba585828601610b5d565b9150509250929050565b5f8115159050919050565b610bc381610baf565b82525050565b5f602082019050610bdc5f830184610bba565b92915050565b610beb81610b3e565b82525050565b5f602082019050610c045f830184610be2565b92915050565b5f805f60608486031215610c2157610c20610ae0565b5b5f610c2e86828701610b2a565b9350506020610c3f86828701610b2a565b9250506040610c5086828701610b5d565b9150509250925092565b5f60ff82169050919050565b610c6f81610c5a565b82525050565b5f602082019050610c885f830184610c66565b92915050565b5f60208284031215610ca357610ca2610ae0565b5b5f610cb084828501610b2a565b91505092915050565b610cc281610b03565b82525050565b5f602082019050610cdb5f830184610cb9565b92915050565b5f8060408385031215610cf757610cf6610ae0565b5b5f610d0485828601610b2a565b9250506020610d1585828601610b2a565b9150509250929050565b7f4e6f7420656e6f7567682062616c616e63652e000000000000000000000000005f82015250565b5f610d53601383610a40565b9150610d5e82610d1f565b602082019050919050565b5f6020820190508181035f830152610d8081610d47565b9050919050565b7f4e6f7420656e6f75676820616c6c6f77616e63652e00000000000000000000005f82015250565b5f610dbb601583610a40565b9150610dc682610d87565b602082019050919050565b5f6020820190508181035f830152610de881610daf565b9050919050565b7f4e487b71000000000000000000000000000000000000000000000000000000005f52601160045260245ffd5b5f610e2682610b3e565b9150610e3183610b3e565b9250828203905081811115610e4957610e48610def565b5b92915050565b5f610e5982610b3e565b9150610e6483610b3e565b9250828201905080821115610e7c57610e7b610def565b5b92915050565b7f4f6e6c7920746865206f776e65722063616e2063616c6c20746869732066756e5f8201527f6374696f6e2e0000000000000000000000000000000000000000000000000000602082015250565b5f610edc602683610a40565b9150610ee782610e82565b604082019050919050565b5f6020820190508181035f830152610f0981610ed0565b905091905056fea2646970667358221220b5426bd0bdd5294eb5ae6aa5891c9acbe32d3cc21628ab06e5292fb92260699c64736f6c63430008140033",
  "immutableReferences": {},
  "source": "// SPDX-License-Identifier: MIT\r\n\r\npragma solidity ^0.8.0;\r\n\r\ncontract BojackToken {\r\n    string public constant name = \"Bojack\";\r\n    string public constant symbol = \"BJK\";\r\n    uint8 public constant decimals = 18;\r\n    uint256 public totalSupply;\r\n\r\n    mapping(address => uint256) public balanceOf;\r\n    mapping(address => mapping(address => uint256)) public allowance;\r\n\r\n    address public owner;\r\n\r\n    modifier onlyOwner() {\r\n        require(msg.sender == owner, \"Only the owner can call this function.\");\r\n        _;\r\n    }\r\n\r\n    constructor(uint256 initialSupply) {\r\n        owner = msg.sender;\r\n        totalSupply = initialSupply * 10 ** uint256(decimals);\r\n        balanceOf[owner] = totalSupply;\r\n    }\r\n\r\n    function transfer(address to, uint256 value) external returns (bool success) {\r\n        require(balanceOf[msg.sender] >= value, \"Not enough balance.\");\r\n        balanceOf[msg.sender] -= value;\r\n        balanceOf[to] += value;\r\n        emit Transfer(msg.sender, to, value);\r\n        return true;\r\n    }\r\n\r\n    function approve(address spender, uint256 value) external returns (bool success) {\r\n        allowance[msg.sender][spender] = value;\r\n        emit Approval(msg.sender, spender, value);\r\n        return true;\r\n    }\r\n\r\n    function transferFrom(address from, address to, uint256 value) external returns (bool success) {\r\n        require(balanceOf[from] >= value, \"Not enough balance.\");\r\n        require(allowance[from][msg.sender] >= value, \"Not enough allowance.\");\r\n        balanceOf[from] -= value;\r\n        balanceOf[to] += value;\r\n        allowance[from][msg.sender] -= value;\r\n        emit Transfer(from, to, value);\r\n        return true;\r\n    }\r\n\r\n    function changeOwner(address newOwner) external onlyOwner {\r\n        owner = newOwner;\r\n    }\r\n\r\n    function destroy() external onlyOwner {\r\n        selfdestruct(payable(owner));\r\n    }\r\n\r\n    event Transfer(address indexed from, address indexed to, uint256 value);\r\n    event Approval(address indexed owner, address indexed spender, uint256 value);\r\n}\r\n",
  "sourcePath": "C:\\Users\\Asus\\OneDrive\\Desktop\\Token\\contracts\\BojackToken.sol",
  "compiler": {
    "name": "solc",
    "version": "0.8.20+commit.a1b79de6.Emscripten.clang"
  },
  "schemaVersion": "3.4.14",
  "updatedAt": "2023-06-19T16:15:50.958Z",
  "devdoc": {
    "kind": "dev",
    "methods": {},
    "version": 1
  },
  "userdoc": {
    "kind": "user",
    "methods": {},
    "version": 1
  }
}